:08000000803102288731FB2F3B
:100DEC0020008C018D0121008C018D0123008C01D0
:100DFC008D016B30210099008731BF270800F50069
:100E0C007503031D0E2F7408803E873117270800C9
:100E1C0002307506031D08007408C03E8731172781
:100E2C000800F30020000C10730887315927873114
:100E3C0020000C150730F2007D30F100F10B242F4F
:100E4C00F20B242F20000C110800F30020000C14CE
:100E5C00730887315927873120000C150730F200B1
:100E6C007D30F100F10B382FF20B382F20000C11D4
:100E7C000800F701F8017408770784007508783DBD
:100E8C0085001200031908007408770784007508A0
:100E9C00783D8500000887312B2787310130F70713
:100EAC000030F83D412FF000701C5F2F20000D1416
:100EBC00612F20000D10F01C652F8D14662F8D10E6
:100ECC00701D6A2F0D156B2F0D11F01D6F2F8D15C9
:100EDC00702F8D11701E742F0D16752F0D12F01EA4
:100EEC00792F8D167A2F8D12701F7E2F0D177F2F55
:100EFC000D13F01F832F8D1708008D1308008631FA
:100F0C00F6268731F401013087310527873100300F
:100F1C00F4008830F50087313F2787310B30FB0018
:100F2C002630FA006630F900F90B9A2FFA0B9A2F3B
:100F3C00FB0B9A2F0032F4010230873105278731E1
:100F4C000E30FC008830FD007D08F5007C08F400B4
:100F5C0087313F2787310B30FB002630FA00663093
:100F6C00F900F90BB72FFA0BB72FFB0BB72F003289
:100F7C00882F003087315927873120000C10213001
:100F8C00F5007630F400F40BC92FF50BC92F0000D7
:100F9C0030308731172787310730F5007D30F4006A
:100FAC00F40BD62FF50BD62F30308731172787311E
:100FBC001430F5007930F400F40BE22FF50BE22F2E
:100FCC000032303087311727873138308731172777
:100FDC0087310C308731172787310130873117273C
:100FEC0087310630873117270800FC01FD012000EE
:100FFC008731852F47347534743465346E3420341E
:10100C00413470347034653474346934743400345D
:0A101C0048346F3476346934003430
:020000040001F9
:04000E00E4C9FFDC66
:00000001FF
