:040000004EEF00F0CF
:100008004D82FACF33F0FBCF34F0E9CF35F0EACFA9
:1000180036F0E1CF37F0E2CF38F0D9CF39F0DACF88
:100028003AF0F3CF3BF0F4CF3CF0F6CF3DF0F7CF0A
:100038003EF0F8CF3FF0F5CF40F09EA405D09E9457
:10004800CD90A1EC02F000F0A4A206D0A49266EC38
:1000580004F0A1EC02F02E2A40C0F5FF3FC0F8FFE3
:100068003EC0F7FF3DC0F6FF3CC0F4FF3BC0F3FFC6
:100078003AC0DAFF39C0D9FF38C0E2FF37C0E1FF24
:1000880036C0EAFF35C0E9FF34C0FBFF33C0FAFFD2
:100098004D9211001EEF03F022502310D8A404D073
:1000A8004C8019EC04F0120022042310D8A44ED07E
:1000B80020EE07F0DECFE8F0DDCFE9F00001E81F21
:1000C800E91FE84BE92B28500001E825266E295046
:1000D8000001E921276E46C0E2F047C0E3F0FF0EB9
:1000E8000001E56FE46982EC04F00001E2511B5C59
:1000F8000001E3511C58D8A012D046C0E2F047C016
:10010800E3F0FF0E0001E56FE46982EC04F0000102
:10011800E251265C0001E3512758D8B00AD01BC031
:1001280028F01CC029F04BAA02D04C9007D04B8A6B
:1001380005D04B9A000E296E000E286E4CA003D0F5
:1001480019EC04F01200EDEC03F0120023BE29D0E4
:10015800235004E1020E225CD8A023D0FF0E000138
:10016800E86FFF0E0001E96F42C0EAF043C0EBF010
:100178000001E8510001EA270001E9510001EB23E1
:100188000001EA51225C2350800A0001EC6F000153
:10019800EB51800A0001EC59D8B003D0EDEC03F024
:1001A800120020EE07F0DECFE8F0DDCFE9F0000125
:1001B800E81FE91FE84BE92B28500001E825266EC7
:1001C80029500001E921276E1B50465C1C504758F6
:1001D800D8A006D02650465C27504758D8B00AD039
:1001E8001BC028F01CC029F04BAA02D04C8007D0B5
:1001F8004B8A05D04B9A000E296E000E286E4CA033
:1002080003D019EC04F002D0EDEC03F0085004E13F
:100218001E0E075CD8A026D01150075C1250085853
:10022800D8B01CD01CBE06D01C5014E12F0E1B5C8D
:10023800D8B010D018BE06D0185008E1180E175CB8
:10024800D8B004D0FD0E43EC04F01200000E43ECCD
:1002580004F01200030E43EC04F01200FD0E43EC10
:1002680004F012004BA002D04B9001D04B80FF0E3F
:1002780042240001EF6FFF0E43200001F06F000ED3
:100288000001F26F000EF16F47D0F1C0E8F0F2C044
:10029800E9F0D8900001E837E937010E0001E827B6
:1002A800000EE923A60E0001E825D96E000E000114
:1002B800E921DA6EF1C0EAF0F2C0EBF0D890000163
:1002C800EA37EB37010E0001EA27000EEB23000E98
:1002D8000001EA25E16E010E0001EB21E26EDFCF9D
:1002E800E7FFD8900001F135D96E0001F235DA6EDA
:1002F800A60ED926000EDA22D8900001F135E16E5B
:100308000001F235E26E000EE126010EE222DFCF97
:10031800E7FF0001F14BF22B0001F1510001EF5D05
:100328000001F051800A0001E86F0001F251800AD3
:100338000001E859D8B0A9D7000E0001F46F000EEB
:10034800F36F66D0F3C0E8F0F4C0E9F0D89000018C
:10035800E837E937010E0001E827000EE923000E0F
:100368000001E825D96E010E0001E921DA6EF3C01B
:10037800EAF0F4C0EBF00001EA1FEB1FEA4BEB2BAD
:100388000001EF510001EA270001F0510001EB23C1
:10039800D8900001EA37EB37010E0001EA27000E7A
:1003A800EB23A60E0001EA25E16E000E0001EB2109
:1003B800E26EDFCFE7FFD8900001F335D96E000178
:1003C800F435DA6E000ED926010EDA22F3C0E8F011
:1003D800F4C0E9F00001E81FE91FE84BE92B000130
:1003E800EF510001E8270001F0510001E923D890FE
:1003F8000001E837E937A60E0001E825E16E000E96
:100408000001E921E26EDFCFE7FF0001F34BF42B97
:100418000001F3510001EF5D0001F051800A000175
:10042800E86F0001F451800A0001E859D8B08AD772
:10043800000E0001EE6F000EED6F0001EEBF08D058
:10044800110E0001ED5D270E0001EE59D8B0120023
:10045800100E0001E86F940EE82EFED7E82FFCD7A7
:1004680000D00001ED4BEE2BE8D7000E0001EF6F36
:10047800040E0001EF6501D043D00001EF51010DDA
:10048800D80EF324D96E000EF420DA6EE9C0E2F03B
:10049800EAC0E3F0000E0001E56F0A0EE46F91EC8C
:1004A80003F00001E251DF6E0001EF51010DD80E9B
:1004B800F324D96E000EF420DA6EDF500001EB6FE2
:1004C800EC6B0001EB1FEC1FEB4BEC2B0001E9512F
:1004D8000001EB250001E26F0001EA510001EC2167
:1004E8000001E36F000E0001E56F0A0EE46FE2EC15
:1004F80002F0E2C0E9F0E3C0EAF00001EF2BB8D760
:10050800040E0001EE6F0001EEBF13D00001EE51A2
:10051800010DD80EF324D96E000EF420DA6EDF50E8
:100528000001ED6F0001ED5118EC05F00001EE0738
:10053800EAD73B0E34EC05F012002FD08080D0C0F3
:100548002FF0D1C030F0B6EC04F0450E4A6E120020
:1005580080908082D2C02FF0D3C030F0B6EC04F087
:10056800540E4A6E120080928086D4C02FF0D5C0F7
:1005780030F0B6EC04F0520E4A6E12008096808479
:10058800D6C02FF0D7C030F0B6EC04F0000E4A6E9B
:1005980012008094410E4A6E12004A50000AD8B4E4
:1005A800F8D7410AD8B4CAD7040AD8B4D1D7170A99
:1005B800D8B4E4D7060AD8A41200D5D7000E000193
:1005C800E86F000EE76F0001E4510001E511D8B4AF
:1005D8002CD0010E0001E66F06D00001D890E43758
:1005E800E5370001E62B0001E5AFF7D70001D89009
:1005F800E737E8370001E4510001E25D0001E55109
:100608000001E359D8A00AD00001E4510001E25FDB
:100618000001E5510001E35B0001E7810001D8908A
:10062800E533E4330001E62FE1D7E7C0E2F0E8C0A4
:10063800E3F0120001EE00F02A0EEE6AE806FDE192
:1006480000EE60F0820EEE6AE806FDE14B6A00EE0D
:1006580001F02E0EEE6AE806FDE1110EF66E0B0EA5
:10066800F76E000EF86E00EEF5F010EE06F00900D9
:10067800F5CFEEFFE550E150FAE1080EF66E0B0EED
:10068800F76E000EF86E00EE42F010EE09F0090069
:10069800F5CFEEFFE550E150FAE14D904D92000E96
:1006A800F86E000140EF05F0A4A4FED7A494000E54
:1006B8000001E16F000EE06F50CFE0F00001E16B48
:1006C8000001E051E16FE06B0F014F510001E013B1
:1006D800000E0F014F6F000E0F01506FE0C007F0C2
:1006E800E1C008F0D4C0E9F0D5C0EAF039EC02F076
:1006F80020EE07F0DECFF0F0DDCFF1F00001F01FC3
:10070800F11FF04BF12B11500001F0251B6E125018
:100718000001F1211C6E818612000001E4510001E4
:10072800E511D8B423D0010E416E05D00001D89050
:10073800E437E537412A0001E5AFF8D70001E45175
:100748000001E25D0001E5510001E359D8A008D09D
:100758000001E4510001E25F0001E5510001E35BA3
:100768000001D890E533E433412EE8D7E2C0E2F047
:10077800E3C0E3F012003F0ECD16CD50CF0B1009A9
:10078800CD6ECD84CD90000ECF6E000ECE6EB48EA1
:10079800B498B49AB48CFC0EB4163F0EB116CF0EB2
:1007A800B116B184B1800F014D8F0F014D990F0122
:1007B8004D9B0F014D8DFC0E0F014D173F0E0F0184
:1007C8004E17CF0E0F014E170F014E850F014E81A8
:1007D800120007500001F95D08500001FA59D8A02D
:1007E8000AD04450075C45500858D8A004D0000EE1
:1007F80043EC04F012004450075C45500858D8B048
:1008080010D00001F551075C0001F6510858D8B026
:1008180004D0060E43EC04F01200030E43EC04F07F
:100828001200FD0E43EC04F0120007500001F75DC2
:1008380008500001F859D8A00AD04850075C495020
:100848000858D8A004D0000E43EC04F01200485019
:10085800075C49500858D8B00ED04650075C47503E
:100868000858D8B004D0060E43EC04F01200030E6A
:1008780043EC04F01200FD0E43EC04F01200416E4C
:10088800270E0001D45D020E0001D559D8B041BE33
:1008980001D016D041500001D427000E41BEFF0EF2
:1008A8000001D5231B0E0001D45D040E0001D559AB
:1008B800D8A01200000E0001D56F000ED46F1200F0
:1008C80000F0120000F0F6EC04F02FC02AF030C05F
:1008D8002BF0900E2A5C1A0E2B58D8B004D08194B5
:1008E800808A4B9809D0900E2A5C1A0E2B58D8A0F3
:1008F80003D08184809A4B8800F012000001E251F5
:100908000001E403F3CFE6F0F4CFE7F00001E25191
:100918000001E503F3500001E7270001E35100015E
:10092800E403F3500001E727E6C0E2F0E7C0E3F094
:10093800120056EC05F04BEC05F008EC05F08CECD9
:1009480005F061EC05F07AEC05F0BFEC03F07FEC04
:1009580005F073EC05F0E1EC04F04B9A4C8026ECC2
:1009680005F01200D8902F363036D00E2F242F6E77
:10097800070E3020306E000ECE6E000ECF6E2FC0E8
:10098800BEFF30502F6E306A2FC0BFFFCD801200DF
:1009980001C00BF002C00CF003C00DF004C00EF053
:1009A80005C00FF006C010F007C011F008C012F023
:1009B80009C013F00AC014F01200010E0001D16F33
:1009C800F40ED06F010E0001D36FF40ED26F000E3B
:1009D8000001D56F000ED46F010E0001D76FF40E21
:1009E800D66F1200B3CF31F0326A3150326E316AAD
:1009F800B2503112000EB36E000EB26E00F031C06C
:100A08002FF032C030F01200000E0F01386F000EC8
:100A18000F01396F000E0F013A6F000E0F013B6F87
:100A2800000E0F013C6F1200416E9EB804D0C80E34
:100A380000F0E82EFDD7300E412641C0ADFF9EB82C
:100A48001200FDD783ACFED7838A9C0E416ED70E69
:100A5800E82EFED7412EFCD700F083B81200FDD750
:100A6800416E9EB804D0C80E00F0E82EFDD741C0F4
:100A7800ADFF9EB81200FDD79DEC04F06BEC05F0BD
:100A880058EC03F050EC00F0CCEC04F0F7D7000E73
:100A9800926E100E936E910E946E500E956E000E1F
:100AA800966E1200000E806E080E816E000E826E29
:100AB800080E836E000E846E1200440EAF6EAC8476
:100AC800B886AC98AB8EAC8A9E98AB881200000EA4
:100AD8000F014F6F000E0F01506F81961200A38215
:100AE800A1929D849E94F28CF28E1200000EC76E25
:100AF800210EC66E1200BD50F00B0A09BD6E120021
:100B08000A00FF5170171027411B5BC83237640079
:060B1800770ED36E1200FF
:020000040020DA
:08000000FFFFFFFFFFFFFFFF00
:020000040030CA
:0E000000FF181F3CFFBF81FF0FC00FE00F4035
:00000001FF
