:040000004BEF00F0D2
:100008001582FACF07F0FBCF08F0E9CF09F0EACF65
:100018000AF0E1CF0BF0E2CF0CF0D9CF0DF0DACF38
:100028000EF0F3CF0FF0F4CF10F0F6CF11F0F7CFBA
:1000380012F0F8CF13F0F5CF14F000F0A4A204D01A
:10004800A4924DEC00F005D0A1A203D0A19200F03B
:1000580000F014C0F5FF13C0F8FF12C0F7FF11C07D
:10006800F6FF10C0F4FF0FC0F3FF0EC0DAFF0DC09B
:10007800D9FF0CC0E2FF0BC0E1FF0AC0EAFF09C0CC
:10008800E9FF08C0FBFF07C0FAFF15921100BBEF9C
:1000980000F065EC00F001C005F002C006F0900E1B
:1000A800055C1A0E0658D8B002D081941200900E42
:1000B800055C1A0E0658D8A002D08184120000F000
:1000C8001200B3CF03F0046A0350046E036AB250FF
:1000D8000312000EB36E000EB26E00F003C001F002
:1000E80004C002F01200B0EC00F0A5EC00F088ECBF
:1000F80000F0C9EC00F0CCEC00F0CDEC00F098EC8E
:1001080000F0C0EC00F01200000E0F01386F000E76
:100118000F01396F000E0F013A6F000E0F013B6F90
:10012800000E0F013C6F1200B48EB498B49AB48CD0
:10013800FC0EB4163F0EB116CF0EB116B184B180C5
:100148001200000E926E100E936E910E946E500E69
:10015800956E000E966E1200100E806E080E816E5F
:10016800000E826E080E836E000E846E12001590CB
:1001780015920001C5EF00F0F28EF28CA382A082E6
:10018800120077EC00F000F0FED7770ED36E120065
:04019800120012003F
:020000040020DA
:08000000FFFFFFFFFFFFFFFF00
:020000040030CA
:0E000000FF081F3CFFBF81FF0FC00FE00F4045
:00000001FF
