:040000005AEF00F0C3
:100008005082FACF32F0FBCF33F0E9CF34F0EACFA9
:1000180035F0E1CF36F0E2CF37F0D9CF38F0DACF8C
:1000280039F0F3CF3AF0F4CF3BF0F6CF3CF0F7CF0E
:100038003DF0F8CF3EF0F5CF3FF09EA404D09E945B
:10004800CD9009EC02F0A4A213D0A492B3CF29F06A
:100058002A6A29502A6E296AB2CF29F02A6A000E24
:10006800B36E000EB26E8DEC03F009EC02F02F2A8D
:100078003FC0F5FF3EC0F8FF3DC0F7FF3CC0F6FFAC
:100088003BC0F4FF3AC0F3FF39C0DAFF38C0D9FFEC
:1000980037C0E2FF36C0E1FF35C0EAFF34C0E9FFF0
:1000A80033C0FBFF32C0FAFF50921100A9EF02F0F3
:1000B80025502610D8A420D04AC0D9F04BC0DAF079
:1000C8000001D91FDA1FD94BDA2B0001D9511B5C6B
:1000D8000001DA511C58D8B006D04FAA02D04F9C64
:1000E80003D04F8A01D04F9A4FAC03D0D3EC02F023
:1000F8001200FBEC02F0120026BE28D0265003E1C5
:100108002504D8A023D0FF0E0001D96FFF0E0001EF
:10011800DA6F40C0DBF041C0DCF00001D9510001CA
:10012800DB270001DA510001DC230001DB51255CEB
:100138002650800A0001DD6F0001DC51800A0001B1
:10014800DD59D8B003D0FBEC02F01200FF0E00011D
:10015800D96FFF0E0001DA6F40C0DBF041C0DCF060
:100168000001D9510001DB270001DA510001DC232D
:1001780025500001DB191AE126500001DC19D8A42A
:1001880015D01B504A5C1C504B58D8B006D04FAA0B
:1001980002D04F8C03D04F8A01D04F9A4FAC03D076
:1001A800D3EC02F01200FBEC02F01200085004E15C
:1001B8001E0E075CD8A026D01150075C12500858B4
:1001C800D8B01CD01CBE06D01C5014E12F0E1B5CEE
:1001D800D8B010D018BE06D0185008E1180E175C19
:1001E800D8B004D0FD0ED5EC03F01200000ED5EC0B
:1001F80003F01200030ED5EC03F01200FD0ED5EC4F
:1002080003F012004FA002D04F9001D04F80FF0E94
:1002180040240001E06FFF0E41200001E16F000E55
:100228000001E36F000EE26F47D0E2C0D9F0E3C0EF
:10023800DAF0D8900001D937DA37010E0001D92752
:10024800000EDA23A60E0001D925D96E000E000192
:10025800DA21DA6EE2C0DBF0E3C0DCF0D89000010E
:10026800DB37DC37010E0001DB27000EDC23000E34
:100278000001DB25E16E010E0001DC21E26EDFCF1B
:10028800E7FFD8900001E235D96E0001E335DA6E58
:10029800A60ED926000EDA22D8900001E235E16ECA
:1002A8000001E335E26E000EE126010EE222DFCF07
:1002B800E7FF0001E24BE32B0001E2510001E05DA2
:1002C8000001E151800A0001D96F0001E351800A61
:1002D8000001D959D8B0A9D7000E0001E56F000E6A
:1002E800E46F66D0E4C0D9F0E5C0DAF0D890000138
:1002F800D937DA37010E0001D927000EDA23000EAC
:100308000001D925D96E010E0001DA21DA6EE4C0A8
:10031800DBF0E5C0DCF00001DB1FDC1FDB4BDC2B76
:100328000001E0510001DB270001E1510001DC235D
:10033800D8900001DB37DC37010E0001DB27000E07
:10034800DC23A60E0001DB25E16E000E0001DC2196
:10035800E26EDFCFE7FFD8900001E435D96E0001E7
:10036800E535DA6E000ED926010EDA22E4C0D9F09E
:10037800E5C0DAF00001D91FDA1FD94BDA2B0001EA
:10038800E0510001D9270001E1510001DA23D8909A
:100398000001D937DA37A60E0001D925E16E000E23
:1003A8000001DA21E26EDFCFE7FF0001E44BE52B25
:1003B8000001E4510001E05D0001E151800A000103
:1003C800D96F0001E551800A0001D959D8B08AD700
:1003D800000E0001DF6F000EDE6F0001DFBF08D0E6
:1003E800110E0001DE5D270E0001DF59D8B01200A2
:1003F8003F0E0001D96F550EE82EFED7D92FFCD736
:1004080000F00001DE4BDF2BE8D72FD08080D0C072
:1004180030F0D1C031F023EC03F0450E4E6E1200DF
:1004280080908082D2C030F0D3C031F023EC03F04A
:10043800540E4E6E120080928086D4C030F0D5C023
:1004480031F023EC03F0520E4E6E1200809480843B
:10045800D6C030F0D7C031F023EC03F0000E4E6E5A
:1004680012008094410E4E6E12004E50000AD8B40D
:10047800F8D7410AD8B4CAD7040AD8B4D1D7170ACA
:10048800D8B4E4D7060AD8A41200D5D73F0ECD16A3
:10049800300ECD12CD84CD90000ECF6E000ECE6EF4
:1004A800B48EB498B49AB48CFC0EB4163F0EB11640
:1004B800B150CF0B2009B16EB184B1800F014D8FBF
:1004C8000F014D990F014D9B0F014D8DFC0E0F0132
:1004D8004D173F0E0F014E170F014E51CF0B20093C
:1004E8004E6F0F014E850F014E811200A4A4FED756
:1004F800A494000E2C6E000E2B6E50CF2BF02C6A9D
:100508002B502C6E2B6A0F014F512B12000E0F012E
:100518004F6F000E0F01506F2BC007F02CC008F072
:1005280020EE07F0DECFD8F0DDCFD9F00001D81FDC
:10053800D91FD84BD92B11500001D8251B6E12504A
:100548000001D9211C6E8186120001EE00F02A0EEE
:10055800EE6AE806FDE100EE60F0780EEE6AE80665
:10056800FDE14F6A00EE01F02F0EEE6AE806FDE1AC
:10057800CC0EF66E070EF76E000EF86E00EE40F029
:1005880010EE0FF00900F5CFEEFFE550E150FAE16B
:1005980050905092000EF86E0001B2EF03F0075031
:1005A800445C08504558D8A00AD04C50075C4D50C0
:1005B8000858D8A004D0000ED5EC03F012004C5017
:1005C800075C4D500858D8B00ED04A50075C4B50C5
:1005D8000858D8B004D0060ED5EC03F01200030E6C
:1005E800D5EC03F01200FD0ED5EC03F01200075015
:1005F800485C08504958D8A00AD04650075C475074
:100608000858D8A004D0000ED5EC03F012004650CC
:10061800075C47500858D8B00ED04250075C43508A
:100628000858D8B004D0060ED5EC03F01200030E1B
:10063800D5EC03F01200FD0ED5EC03F01200E80E25
:100648003024306E030E3120316ED890303631367A
:10065800000ECE6E000ECF6E30C0BEFF3150306E31
:10066800316A30C0BFFFCD80120001C00BF002C05C
:100678000CF003C00DF004C00EF005C00FF006C06A
:1006880010F007C011F008C012F009C013F00AC03A
:1006980014F01200900E295C1A0E2A58D8B004D013
:1006A8008194808A4F9809D0900E295C1A0E2A5896
:1006B800D8A003D08184809A4F8800F01200CAEC39
:1006C80003F0BFEC03F0A2EC03F0FFEC03F002EC44
:1006D80004F0F5EC03F04AEC02F0FAEC03F0EEEC6F
:1006E80003F078EC03F01200010E0001D16FF40E54
:1006F800D06F010E0001D36FF40ED26F000E00010F
:10070800D56F000ED46F010E0001D76FF40ED66FAF
:100718001200900E295C1A0E2A58D8B004D0819481
:10072800808A4F9809D0900E295C1A0E2A58D8A0B2
:1007380003D08184809A4F8800F01200000E0F01C8
:10074800386F000E0F01396F000E0F013A6F000E5F
:100758000F013B6F000E0F013C6F120063EC03F0BA
:10076800DEEC03F04EEC03F07AEC02F05CEC00F007
:1007780039EC03F0F5D7000E926E100E936E910EC1
:10078800946E500E956E000E966E1200000E806EDE
:10079800080E816E000E826E080E836E000E846E47
:1007A80012000001D86F0001D8510001D427000EB3
:1007B800D5231200000E0F014F6F000E0F01506F6E
:1007C800819612000A001B5B536DFF5137648E2D12
:1007D800E3484100A382A1929D849E94F28CF28EFC
:1007E8001200000EC76E210EC66E1200BD50F00B2F
:0E07F8000A09BD6E1200770ED36E12001200B9
:020000040020DA
:08000000FFFFFFFFFFFFFFFF00
:020000040030CA
:0E000000FF181F3CFFBF81FF0FC00FE00F4035
:00000001FF
