:0400000044EF00F0D9
:100008001582FACF07F0FBCF08F0E9CF09F0EACF65
:100018000AF0E1CF0BF0E2CF0CF0D9CF0DF0DACF38
:100028000EF0F3CF0FF0F4CF10F0F6CF11F0F7CFBA
:1000380012F0F8CF13F0F5CF14F0A4A203D0A492D5
:1000480046EC00F014C0F5FF13C0F8FF12C0F7FF2C
:1000580011C0F6FF10C0F4FF0FC0F3FF0EC0DAFFA7
:100068000DC0D9FF0CC0E2FF0BC0E1FF0AC0EAFFD8
:1000780009C0E9FF08C0FBFF07C0FAFF159211008D
:10008800A4EF00F06DEC00F001C005F002C006F02E
:10009800900E055C1A0E0658D8B002D08194120052
:1000A800900E055C1A0E0658D8A012008184120022
:1000B80099EC00F08EEC00F07EEC00F0B7EC00F06C
:1000C800BAEC00F0BBEC00F0AEEC00F0B3EC00F0E2
:1000D8001200B3CF03F0046A0350046E036AB250EF
:1000E8000312000EB36E000EB26E03C001F004C01E
:1000F80002F01200000E0F01386F000E0F01396F69
:10010800000E0F013A6F000E0F013B6F000E0F013A
:100118003C6F1200000E926E100E936E910E946E4C
:10012800500E956E000E966E1200100E806E080E20
:10013800816E000E826E080E836E000E846E1200B1
:10014800159015920001A9EF00F05CEC00F0818495
:1001580000F0FED7050EB16E800EB46E1200F28E5E
:10016800F28CA3821200770ED36E120012001200D6
:020000040020DA
:08000000FFFFFFFFFFFFFFFF00
:020000040030CA
:0E000000FF081F3CFFBF81FF0FC00FE00F4045
:00000001FF
