:040000004EEF00F0CF
:100008005182FACF37F0FBCF38F0E9CF39F0EACF99
:100018003AF0E1CF3BF0E2CF3CF0D9CF3DF0DACF78
:100028003EF0F3CF3FF0F4CF40F0F6CF41F0F7CFFA
:1000380042F0F8CF43F0F5CF44F09EA405D09E944B
:10004800CD90FDEC01F000F0A4A206D0A4924DECF6
:1000580003F0FDEC01F0322A44C0F5FF43C0F8FF7D
:1000680042C0F7FF41C0F6FF40C0F4FF3FC0F3FFB6
:100078003EC0DAFF3DC0D9FF3CC0E2FF3BC0E1FF14
:100088003AC0EAFF39C0E9FF38C0FBFF37C0FAFFC2
:10009800519211003EEF02F02A502B10D8A420D024
:1000A8004BC0D6F04CC0D7F00001D61FD71FD64B97
:1000B800D72B0001D6511B5C0001D7511C58D8B072
:1000C80006D050AA02D0509C03D0508A01D0509A32
:1000D80050AC03D0D9EC02F0120003EC03F012008C
:1000E8002BBE28D02B5003E12A04D8A023D0FF0E22
:1000F8000001D66FFF0E0001D76F45C0D8F046C08B
:10010800D9F00001D6510001D8270001D7510001CC
:10011800D9230001D8512A5C2B50800A0001DA6FDC
:100128000001D951800A0001DA59D8B003D003EC94
:1001380003F01200FF0E0001D66FFF0E0001D76F0B
:1001480045C0D8F046C0D9F00001D6510001D827E3
:100158000001D7510001D9232A500001D8191AE10A
:100168002B500001D919D8A415D01B504B5C1C503A
:100178004C58D8B006D050AA02D0508C03D0508A20
:1001880001D0509A50AC03D0D9EC02F0120003EC25
:1001980003F01200085004E11E0E075CD8A026D018
:1001A8001150075C12500858D8B01CD01CBE06D09D
:1001B8001C5014E12F0E1B5CD8B010D018BE06D00E
:1001C800185008E1180E175CD8B004D0FD0E2DECBD
:1001D80003F01200000E2DEC03F01200030E2DECBC
:1001E80003F01200FD0E2DEC03F0120050A002D017
:1001F800509001D05080FF0E45240001DD6FFF0EA6
:1002080046200001DE6F000E0001E06F000EDF6F78
:1002180047D0DFC0D6F0E0C0D7F0D8900001D6377D
:10022800D737010E0001D627000ED723A60E0001EE
:10023800D625D96E000E0001D721DA6EDFC0D8F0BE
:10024800E0C0D9F0D8900001D837D937010E0001A5
:10025800D827000ED923000E0001D825E16E010E23
:100268000001D921E26EDFCFE7FFD8900001DF352A
:10027800D96E0001E035DA6EA60ED926000EDA2214
:10028800D8900001DF35E16E0001E035E26E000E26
:10029800E126010EE222DFCFE7FF0001DF4BE02B72
:1002A8000001DF510001DD5D0001DE51800A00011F
:1002B800D66F0001E051800A0001D659D8B0A9D7FD
:1002C800000E0001E26F000EE16F66D0E1C0D6F0CB
:1002D800E2C0D7F0D8900001D637D737010E000119
:1002E800D627000ED723000E0001D625D96E010EA1
:1002F8000001D721DA6EE1C0D8F0E2C0D9F00001E0
:10030800D81FD91FD84BD92B0001DD510001D827A0
:100318000001DE510001D923D8900001D837D93720
:10032800010E0001D827000ED923A60E0001D825FA
:10033800E16E000E0001D921E26EDFCFE7FFD89011
:100348000001E135D96E0001E235DA6E000ED926DA
:10035800010EDA22E1C0D6F0E2C0D7F00001D61FC4
:10036800D71FD64BD72B0001DD510001D62700013E
:10037800DE510001D723D8900001D637D737A60E13
:100388000001D625E16E000E0001D721E26EDFCF15
:10039800E7FF0001E14BE22B0001E1510001DD5DC7
:1003A8000001DE51800A0001D66F0001E251800A87
:1003B8000001D659D8B08AD7000E0001DC6F000EB4
:1003C800DB6F0001DCBF08D0110E0001DB5D270EDA
:1003D8000001DC59D8B012003F0E0001D66F550E4F
:1003E800E82EFED7D62FFCD700F00001DB4BDC2B24
:1003F800E8D72FD080801FC033F020C034F069ECDC
:1004080003F0450E4F6E12008090808221C033F0B9
:1004180022C034F069EC03F0540E4F6E1200809243
:10042800808623C033F024C034F069EC03F0520E08
:100438004F6E12008096808425C033F026C034F0B9
:1004480069EC03F0000E4F6E12008094410E4F6E5F
:1004580012004F50000AD8B4F8D7410AD8B4CAD706
:10046800040AD8B4D1D7170AD8B4E4D7060AD8A44E
:100478001200D5D701EE00F02A0EEE6AE806FDE17B
:1004880000EE60F0750EEE6AE806FDE1506A00EED7
:1004980001F0320EEE6AE806FDE1420EF66E080E35
:1004A800F76E000EF86E00EEE3F010EE04F00900AF
:1004B800F5CFEEFFE550E150FAE1180EF66E080EA2
:1004C800F76E000EF86E00EE45F010EE0BF0090026
:1004D800F5CFEEFFE550E150FAE151905192000E50
:1004E800F86E0001DCEF03F0A4A4FED7A494000E7C
:1004F8000001D46F000ED36F50CFD3F00001D46B3E
:100508000001D351D46FD36B0F014F510001D313A6
:10051800000E0F014F6F000E0F01506FD3C007F090
:10052800D4C008F020EE07F0DECFD5F0DDCFD6F04E
:100538000001D51FD61FD54BD62B11500001D5254C
:100548001B6E12500001D6211C6E818612003F0ED0
:10055800CD16CD50CF0B1009CD6ECD84CD90000EA9
:10056800CF6E000ECE6EB48EB498B49AB48CFC0ED6
:10057800B4163F0EB116CF0EB116B184B1800F017B
:100588004D8F0F014D990F014D9B0F014D8DFC0EA5
:100598000F014D173F0E0F014E17CF0E0F014E17CB
:1005A8000F014E850F014E81120007500001E55DD5
:1005B80008500001E659D8A00AD04D50075C4E50AB
:1005C8000858D8A004D0000E2DEC03F012004D50AE
:1005D800075C4E500858D8B00ED04B50075C4C50B2
:1005E8000858D8B004D0060E2DEC03F01200030E04
:1005F8002DEC03F01200FD0E2DEC03F01200075055
:10060800495C08504A58D8A00AD04750075C48505F
:100618000858D8A004D0000E2DEC03F01200475063
:10062800075C48500858D8B010D00001E351075C67
:100638000001E4510858D8B004D0060E2DEC03F0A0
:100648001200030E2DEC03F01200FD0E2DEC03F04A
:1006580012000001D56FE90E235C030E2458D8A0C0
:1006680003D00001D5AF13D00001D5512326000EC9
:100678000001D5BFFF0E24221B0E235C040E245854
:10068800D8A01200000E246E000E236E120000F097
:10069800120000F0A9EC03F033C02EF034C02FF0A4
:1006A800900E2E5C1A0E2F58D8B004D08194808AF0
:1006B800509809D0900E2E5C1A0E2F58D8A003D04F
:1006C8008184809A508800F01200D89033363436EE
:1006D800E80E3324336E030E3420346E000ECE6ED3
:1006E800000ECF6E33C0BEFF3450336E346A33C051
:1006F800BFFFCD80120001C00BF002C00CF003C098
:100708000DF004C00EF005C00FF006C010F007C0D1
:1007180011F008C012F009C013F00AC014F012005A
:10072800F2EC03F0E7EC03F0CCEC03F017EC04F088
:1007380023EC04F012EC04F0ABEC02F01CEC04F037
:1007480005EC04F0BBEC03F01200B3CF35F0366AC9
:100758003550366E356AB2503512000EB36E000E43
:10076800B26E00F035C033F036C034F01200010E1E
:10077800206EF40E1F6E010E226EF40E216E000E16
:10078800246E000E236E010E266EF40E256E1200E6
:10079800000E0F01386F000E0F01396F000E0F01A8
:1007A8003A6F000E0F013B6F000E0F013C6F1200F5
:1007B80094EC03F0FDEC03F078EC02F050EC00F060
:1007C8007FEC03F0F7D7000E926E100E936E910E29
:1007D800946E500E956E000E966E1200000E806E8E
:1007E800080E816E000E826E080E836E000E846EF7
:1007F8001200000E0F014F6F000E0F01506F81960F
:100808001200A382A1929D849E94F28CF28E120013
:100818000A00FF5137648E2DE3484100000EC76E71
:10082800210EC66E1200770ED36ED28E9B8C1200EC
:10083800BD50F00B0A09BD6E12001B5B536D120010
:020000040020DA
:08000000FFFFFFFFFFFFFFFF00
:020000040030CA
:0E000000FF181F3CFFBF81FF0FC00FE00F4035
:00000001FF
