:040000004EEF00F0CF
:100008004D82FACF33F0FBCF34F0E9CF35F0EACFA9
:1000180036F0E1CF37F0E2CF38F0D9CF39F0DACF88
:100028003AF0F3CF3BF0F4CF3CF0F6CF3DF0F7CF0A
:100038003EF0F8CF3FF0F5CF40F09EA405D09E9457
:10004800CD9014EC03F000F0A4A206D0A492AFEC7B
:1000580004F014EC03F02E2A40C0F5FF3FC0F8FF6F
:100068003EC0F7FF3DC0F6FF3CC0F4FF3BC0F3FFC6
:100078003AC0DAFF39C0D9FF38C0E2FF37C0E1FF24
:1000880036C0EAFF35C0E9FF34C0FBFF33C0FAFFD2
:100098004D92110091EF03F0085004E11E0E075C29
:1000A800D8A026D01150075C12500858D8B01CD0E0
:1000B8001CBE06D01C5014E12F0E1B5CD8B010D00B
:1000C8001CBE06D01C5008E1180E1B5CD8B004D02A
:1000D800FD0E8CEC04F01200000E8CEC04F0120003
:1000E800030E8CEC04F01200FD0E8CEC04F01200F0
:1000F8004BA002D04B9001D04B80FF0E4224000150
:10010800E86FFF0E43200001E96F000E0001EB6F5E
:10011800000EEA6F47D0EAC0E2F0EBC0E3F0D890F7
:100128000001E237E337010E0001E227000EE32366
:10013800A60E0001E225D96E000E0001E321DA6E59
:10014800EAC0E4F0EBC0E5F0D8900001E437E53709
:10015800010E0001E427000EE523000E0001E4254E
:10016800E16E010E0001E521E26EDFCFE7FFD890D6
:100178000001EA35D96E0001EB35DA6EA60ED926F4
:10018800000EDA22D8900001EA35E16E0001EB3565
:10019800E26E000EE126010EE222DFCFE7FF00014A
:1001A800EA4BEB2B0001EA510001E85D0001E9513F
:1001B800800A0001E26F0001EB51800A0001E25958
:1001C800D8B0A9D7000E0001ED6F000EEC6F66D015
:1001D800ECC0E2F0EDC0E3F0D8900001E237E3377D
:1001E800010E0001E227000EE323000E0001E225C4
:1001F800D96E010E0001E321DA6EECC0E4F0EDC027
:10020800E5F00001E41FE51FE44BE52B0001E85190
:100218000001E4270001E9510001E523D89000011D
:10022800E437E537010E0001E427000EE523A60EAA
:100238000001E425E16E000E0001E521E26EDFCF4A
:10024800E7FFD8900001EC35D96E0001ED35DA6E84
:10025800000ED926010EDA22ECC0E2F0EDC0E3F080
:100268000001E21FE31FE24BE32B0001E85100010C
:10027800E2270001E9510001E323D8900001E237A9
:10028800E337A60E0001E225E16E000E0001E3212E
:10029800E26EDFCFE7FF0001EC4BED2B0001EC51E4
:1002A8000001E85D0001E951800A0001E26F0001E8
:1002B800ED51800A0001E259D8B08AD7000E00013A
:1002C800E76F000EE66F0001E7BF08D0110E0001CE
:1002D800E65D270E0001E759D8B01200100E0001A4
:1002E800E26F940EE82EFED7E22FFCD700D0000173
:1002F800E64BE72BE8D722502310D8A404D04C8033
:100308003AEC02F0120022042310D8A44ED020EEBA
:1003180007F0DECFEEF0DDCFEFF00001EE1FEF1FAC
:10032800EE4BEF2B28500001EE25266E29500001D8
:10033800EF21276E46C0E2F047C0E3F0FF0E000150
:10034800E56FE469CBEC04F00001E2511B5C0001AD
:10035800E3511C58D8A012D046C0E2F047C0E3F0E1
:10036800FF0E0001E56FE469CBEC04F00001E251F7
:10037800265C0001E3512758D8B00AD01BC028F0EA
:100388001CC029F04BAA02D04C9007D04B8A05D04C
:100398004B9A000E296E000E286E4CA003D03AEC42
:1003A80002F0120060EC04F0120023BE29D02350A2
:1003B80004E1020E225CD8A023D0FF0E0001EE6FEC
:1003C800FF0E0001EF6F42C0F0F043C0F1F00001F2
:1003D800EE510001F0270001EF510001F123000167
:1003E800F051225C2350800A0001F26F0001F151A4
:1003F800800A0001F259D8B003D060EC04F0120072
:1004080020EE07F0DECFEEF0DDCFEFF00001EE1FBB
:10041800EF1FEE4BEF2B28500001EE25266E2950DA
:100428000001EF21276E1B50465C1C504758D8A08E
:1004380006D02650465C27504758D8B00AD01BC073
:1004480028F01CC029F04BAA02D04C8007D04B8A58
:1004580005D04B9A000E296E000E286E4CA003D0D2
:1004680050EC00F0120060EC04F01200075000019C
:10047800F55D08500001F659D8A00AD04850075C2D
:1004880049500858D8A004D0000E8CEC04F0120093
:100498004850075C49500858D8B03ED04650075CD1
:1004A80047500858D8B01CD01CAE06D0D20E1B5CE2
:1004B800FF0E1C58D8A010D01CAE06D0E90E1B5C4D
:1004C800FF0E1C58D8A004D0060E8CEC04F01200C5
:1004D800000E8CEC04F01200FD0E8CEC04F01200FF
:1004E8001CAE06D0D20E1B5CFF0E1C58D8A010D034
:1004F8001CAE06D0E90E1B5CFF0E1C58D8A004D019
:10050800030E8CEC04F01200000E8CEC04F01200C8
:10051800FD0E8CEC04F012001CBE06D01C5014E139
:100528002F0E1B5CD8B010D01CBE06D01C5008E1A2
:10053800180E1B5CD8B004D0FD0E8CEC04F0120031
:10054800000E8CEC04F01200030E8CEC04F0120088
:10055800000E0001EF6F040E0001EF6501D043D0DB
:100568000001EF51010DD80EF324D96E000EF420CE
:10057800DA6EE9C0E2F0EAC0E3F0000E0001E56FD0
:100588000A0EE46F04EC04F00001E251DF6E000192
:10059800EF51010DD80EF324D96E000EF420DA6E57
:1005A800DF500001EB6FEC6B0001EB1FEC1FEB4B16
:1005B800EC2B0001E9510001EB250001E26F00017D
:1005C800EA510001EC210001E36F000E0001E56F24
:1005D8000A0EE46F55EC03F0E2C0E9F0E3C0EAF07C
:1005E8000001EF2BB8D7040E0001EE6F0001EEBF3B
:1005F80013D00001EE51010DD80EF324D96E000E70
:10060800F420DA6EDF500001ED6F0001ED5161EC6E
:1006180005F00001EE07EAD73B0E7DEC05F012006D
:100628002FD08080D0C02FF0D1C030F0FFEC04F084
:10063800450E4A6E120080908082D2C02FF0D3C03F
:1006480030F0FFEC04F0540E4A6E1200809280865F
:10065800D4C02FF0D5C030F0FFEC04F0520E4A6E33
:10066800120080968084D6C02FF0D7C030F0FFECFF
:1006780004F0000E4A6E12008094410E4A6E120079
:100688004A50000AD8B4F8D7410AD8B4CAD7040ADD
:10069800D8B4D1D7170AD8B4E4D7060AD8A4120018
:1006A800D5D7000E0001E86F000EE76F0001E45196
:1006B8000001E511D8B42CD0010E0001E66F06D078
:1006C8000001D890E437E5370001E62B0001E5AFDB
:1006D800F7D70001D890E737E8370001E451000167
:1006E800E25D0001E5510001E359D8A00AD00001FC
:1006F800E4510001E25F0001E5510001E35B000104
:10070800E7810001D890E533E4330001E62FE1D713
:10071800E7C0E2F0E8C0E3F0120001EE00F02A0EB4
:10072800EE6AE806FDE100EE60F0820EEE6AE80689
:10073800FDE14B6A00EE01F02E0EEE6AE806FDE1DF
:10074800A30EF66E0B0EF76E000EF86E00EEF3F0C9
:1007580010EE06F00900F5CFEEFFE550E150FAE1A2
:100768009A0EF66E0B0EF76E000EF86E00EE42F063
:1007780010EE09F00900F5CFEEFFE550E150FAE17F
:100788004D904D92000EF86E000189EF05F0A4A47B
:10079800FED7A494000E0001E16F000EE06F50CF69
:1007A800E0F00001E16B0001E051E16FE06B0F0147
:1007B8004F510001E013000E0F014F6F000E0F01A3
:1007C800506FE0C007F0E1C008F0D4C0E9F0D5C030
:1007D800EAF0ACEC02F020EE07F0DECFF0F0DDCF6F
:1007E800F1F00001F01FF11FF04BF12B1150000147
:1007F800F0251B6E12500001F1211C6E818612003B
:100808000001E4510001E511D8B423D0010E416E76
:1008180005D00001D890E437E537412A0001E5AF5B
:10082800F8D70001E4510001E25D0001E551000143
:10083800E359D8A008D00001E4510001E25F0001AB
:10084800E5510001E35B0001D890E533E433412E24
:10085800E8D7E2C0E2F0E3C0E3F012003F0ECD16A5
:10086800CD50CF0B1009CD6ECD84CD90000ECF6E3C
:10087800000ECE6EB48EB498B49AB48CFC0EB41636
:100888003F0EB116CF0EB116B184B1800F014D8F56
:100898000F014D990F014D9B0F014D8DFC0E0F015E
:1008A8004D173F0E0F014E17CF0E0F014E170F01B8
:1008B8004E850F014E81120007500001F75D085068
:1008C8000001F859D8A00AD04450075C4550085890
:1008D800D8A004D0000E8CEC04F012004450075C41
:1008E80045500858D8B010D00001F351075C0001FA
:1008F800F4510858D8B004D0060E8CEC04F012005D
:10090800030E8CEC04F01200FD0E8CEC04F01200C7
:10091800416E270E0001D45D020E0001D559D8B0F2
:1009280041BE01D016D041500001D427000E41BE6F
:10093800FF0E0001D5231B0E0001D45D040E00013B
:10094800D559D8A01200000E0001D56F000ED46F43
:10095800120000F0120000F03FEC05F02FC02AF062
:1009680030C02BF0900E2A5C1A0E2B58D8B004D049
:100978008194808A4B9809D0900E2A5C1A0E2B58C5
:10098800D8A003D08184809A4B8800F0120000011F
:10099800E2510001E403F3CFE6F0F4CFE7F0000101
:1009A800E2510001E503F3500001E7270001E3519C
:1009B8000001E403F3500001E727E6C0E2F0E7C0D6
:1009C800E3F012009FEC05F094EC05F051EC05F013
:1009D800D5EC05F0AAEC05F0C3EC05F032EC04F018
:1009E800C8EC05F0BCEC05F02AEC05F04B9A4C80FD
:1009F8006FEC05F01200D8902F363036D00E2F2429
:100A08002F6E070E3020306E000ECE6E000ECF6EA9
:100A18002FC0BEFF30502F6E306A2FC0BFFFCD8071
:100A2800120001C00BF002C00CF003C00DF004C0AE
:100A38000EF005C00FF006C010F007C011F008C096
:100A480012F009C013F00AC014F01200010E0001E0
:100A5800D16FF40ED06F010E0001D36FF40ED26F78
:100A6800000E0001D56F000ED46F010E0001D76F84
:100A7800F40ED66F1200B3CF31F0326A3150326EB5
:100A8800316AB2503112000EB36E000EB26E00F031
:100A980031C02FF032C030F01200000E0F01386F55
:100AA800000E0F01396F000E0F013A6F000E0F0193
:100AB8003B6F000E0F013C6F1200416E9EB804D0D0
:100AC800C80E00F0E82EFDD7300E412641C0ADFF1C
:100AD8009EB81200FDD783ACFED7838A9C0E416E68
:100AE800D70EE82EFED7412EFCD700F083B81200AF
:100AF800FDD7416E9EB804D0C80E00F0E82EFDD791
:100B080041C0ADFF9EB81200FDD7E6EC04F0B4EC8E
:100B180005F0CBEC03F07FEC01F015EC05F0F7D70E
:100B2800000E926E100E936E910E946E500E956E8E
:100B3800000E966E1200000E806E080E816E000E7A
:100B4800826E080E836E000E846E1200440EAF6E25
:100B5800AC84B886AC98AB8EAC8A9E98AB881200F1
:100B6800000E0F014F6F000E0F01506F819612009B
:100B7800A382A1929D849E94F28CF28E1200000EA4
:100B8800C76E210EC66E1200BD50F00B0A09BD6E6D
:100B980012000A00FF5170171027411B5BEC2C371D
:080BA8006400770ED36E120009
:020000040020DA
:08000000FFFFFFFFFFFFFFFF00
:020000040030CA
:0E000000FF181F3CFFBF81FF0FC00FE00F4035
:00000001FF
