:040000004EEF00F0CF
:100008004E82FACF35F0FBCF36F0E9CF37F0EACFA2
:1000180038F0E1CF39F0E2CF3AF0D9CF3BF0DACF80
:100028003CF0F3CF3DF0F4CF3EF0F6CF3FF0F7CF02
:1000380040F0F8CF41F0F5CF42F09EA405D09E9451
:10004800CD90CEEC02F000F0A4A206D0A49296ECDB
:1000580004F0CEEC02F0302A42C0F5FF41C0F8FFB0
:1000680040C0F7FF3FC0F6FF3EC0F4FF3DC0F3FFBE
:100078003CC0DAFF3BC0D9FF3AC0E2FF39C0E1FF1C
:1000880038C0EAFF37C0E9FF36C0FBFF35C0FAFFCA
:100098004E9211004BEF03F022502310D8A41BD02E
:1000A80047C0E1F048C0E2F00001E11FE21FE14B68
:1000B800E22B0001E1511B5C1C50800A0001E36F38
:1000C8000001E251800A0001E359D8B012004D80C6
:1000D80045EC04F0120022042310D8A458D020EED6
:1000E80007F0DECFE1F0DDCFE2F00001E11FE21F13
:1000F800E14BE22B28500001E125266E2950000132
:10010800E221276E47C0E1F048C0E2F00001E11F9C
:10011800E21FE14BE22B0001E1511B5C1C50800AFD
:100128000001E36F0001E251800A0001E359D8A001
:1001380017D047C0E1F048C0E2F00001E11FE21F1C
:10014800E14BE22B0001E151265C2750800A0001B7
:10015800E36F0001E251800A0001E359D8B00AD0E8
:100168001BC028F01CC029F04CAA02D04D9007D023
:100178004C8A05D04C9A000E296E000E286E4DA0B0
:1001880003D045EC04F0120019EC04F0120023BE71
:1001980029D0235004E1020E225CD8A023D0FF0E00
:1001A8000001E16FFF0E0001E26F43C0E3F044C0BD
:1001B800E4F00001E1510001E3270001E2510001F0
:1001C800E4230001E351225C2350800A0001E56F1B
:1001D8000001E451800A0001E559D8B003D019ECB8
:1001E80004F0120020EE07F0DECFE1F0DDCFE2F000
:1001F8000001E11FE21FE14BE22B28500001E1253D
:10020800266E29500001E221276E1B50475C48509A
:10021800800A0001E16F1C50800A0001E159D8A052
:100228000CD02650475C4850800A0001E16F2750E7
:10023800800A0001E159D8B00AD01BC028F01CC0C0
:1002480029F04CAA02D04D8007D04C8A05D04C9A90
:10025800000E296E000E286E4DA003D045EC04F068
:1002680002D019EC04F0085004E11E0E075CD8A077
:1002780026D01150075C12500858D8B01CD01CBEAC
:1002880006D01C5014E12F0E1B5CD8B010D018BE3D
:1002980006D0185008E1180E175CD8B004D0FD0E2F
:1002A8006FEC04F01200000E6FEC04F01200030E65
:1002B8006FEC04F01200FD0E6FEC04F012004CA07D
:1002C80002D04C9001D04C80FF0E43240001E86F0F
:1002D800FF0E44200001E96F000E0001EB6F000ED5
:1002E800EA6F47D0EAC0E1F0EBC0E2F0D890000135
:1002F800E137E237010E0001E127000EE223A60EE6
:100308000001E125D96E000E0001E221DA6EEAC093
:10031800E3F0EBC0E4F0D8900001E337E437010ED6
:100328000001E327000EE423000E0001E325E16E3F
:10033800010E0001E421E26EDFCFE7FFD890000153
:10034800EA35D96E0001EB35DA6EA60ED926000E15
:10035800DA22D8900001EA35E16E0001EB35E26E51
:10036800000EE126010EE222DFCFE7FF0001EA4B93
:10037800EB2B0001EA510001E85D0001E951800A18
:100388000001E16F0001EB51800A0001E159D8B08A
:10039800A9D7000E0001ED6F000EEC6F66D0ECC01F
:1003A800E1F0EDC0E2F0D8900001E137E237010E4C
:1003B8000001E127000EE223000E0001E125D96EBD
:1003C800010E0001E221DA6EECC0E3F0EDC0E4F0CA
:1003D8000001E31FE41FE34BE42B0001E851000197
:1003E800E3270001E9510001E423D8900001E33735
:1003F800E437010E0001E327000EE423A60E0001F6
:10040800E325E16E000E0001E421E26EDFCFE7FF95
:10041800D8900001EC35D96E0001ED35DA6E000E8A
:10042800D926010EDA22ECC0E1F0EDC0E2F00001BD
:10043800E11FE21FE14BE22B0001E8510001E12737
:100448000001E9510001E223D8900001E137E237C9
:10045800A60E0001E125E16E000E0001E221E26E28
:10046800DFCFE7FF0001EC4BED2B0001EC51000161
:10047800E85D0001E951800A0001E16F0001ED51DA
:10048800800A0001E159D8B08AD7000E0001E76F51
:10049800000EE66F0001E7BF08D0110E0001E65D0F
:1004A800270E0001E759D8B01200100E0001E16FC5
:1004B800940EE82EFED7E12FFCD700D00001E64BC2
:1004C800E72BE8D7000E0001ED6F040E0001ED6583
:1004D80001D043D00001ED51010DD80EF324D96E9F
:1004E800000EF420DA6EE7C0E0F0E8C0E1F0000E9C
:1004F8000001E36F0A0EE26FBAEC03F00001E0516D
:10050800DF6E0001ED51010DD80EF324D96E000EF7
:10051800F420DA6EDF500001E96FEA6B0001E91F91
:10052800EA1FE94BEA2B0001E7510001E925000128
:10053800E06F0001E8510001EA210001E16F000EBF
:100548000001E36F0A0EE26F0FEC03F0E0C0E7F082
:10055800E1C0E8F00001ED2BB8D7040E0001EC6F04
:100568000001ECBF13D00001EC51010DD80EF324AB
:10057800D96E000EF420DA6EDF500001EB6F000137
:10058800EB511DEC05F00001EC07EAD73B0E4CECF3
:1005980005F012002FD08080D0C031F0D1C032F0E9
:1005A800CBEC04F0450E4B6E120080908082D2C0D6
:1005B80031F0D3C032F0CBEC04F0540E4B6E120085
:1005C80080928086D4C031F0D5C032F0CBEC04F0F4
:1005D800520E4B6E120080968084D6C031F0D7C080
:1005E80032F0CBEC04F0000E4B6E12008094410EFA
:1005F8004B6E12004B50000AD8B4F8D7410AD8B451
:10060800CAD7040AD8B4D1D7170AD8B4E4D7060A87
:10061800D8A41200D5D7000E0001E66F000EE56FD2
:100628000001E2510001E311D8B42CD0010E000101
:10063800E46F06D00001D890E237E3370001E42BDD
:100648000001E3AFF7D70001D890E537E63700019E
:10065800E2510001E05D0001E3510001E159D8A039
:100668000AD00001E2510001E05F0001E3510001FE
:10067800E15B0001E5810001D890E333E23300013A
:10068800E42FE1D7E5C0E0F0E6C0E1F0120001EEAA
:1006980000F02A0EEE6AE806FDE100EE60F0800E3A
:1006A800EE6AE806FDE14C6A00EE01F0300EEE6AF3
:1006B800E806FDE1430EF66E0B0EF76E000EF86EBF
:1006C80000EEF0F010EE06F00900F5CFEEFFE55071
:1006D800E150FAE13A0EF66E0B0EF76E000EF86E68
:1006E80000EE43F010EE09F00900F5CFEEFFE550FB
:1006F800E150FAE14E904E92000EF86E000159EF6B
:1007080005F0A4A4FED7A494000E2D6E000E2C6E46
:1007180050CF2CF02D6A2C502D6E2C6A0F014F51A2
:100728002C12000E0F014F6F000E0F01506F2CC0DE
:1007380007F02DC008F02CC0E7F02DC0E8F066ECFB
:1007480002F020EE07F0DECFEEF0DDCFEFF0000193
:10075800EE1FEF1FEE4BEF2B11500001EE251B6E25
:1007680012500001EF211C6E818612000001E25137
:100778000001E311D8B426D0010E0001E46F06D0C1
:100788000001D890E237E3370001E42B0001E3AF22
:10079800F7D70001E2510001E05D0001E3510001DB
:1007A800E159D8A008D00001E2510001E05F000142
:1007B800E3510001E15B0001D890E333E23300012B
:1007C800E42FE7D7E0C0E0F0E1C0E1F012003F0E0F
:1007D800CD16CD50CF0B1009CD6ECD84CD90000E27
:1007E800CF6E000ECE6EB48EB498B49AB48CFC0E54
:1007F800B4163F0EB116CF0EB116B184B1800F01F9
:100808004D8F0F014D990F014D9B0F014D8DFC0E22
:100818000F014D173F0E0F014E17CF0E0F014E1748
:100828000F014E850F014E81120007500001F45D43
:1008380008500001F559D8A00AD04550075C465029
:100848000858D8A004D0000E6FEC04F012004550F0
:10085800075C46500858D8B010D00001F051075C2A
:100868000001F1510858D8B004D0060E6FEC04F01E
:100878001200030E6FEC04F01200FD0E6FEC04F092
:10088800120007500001F25D08500001F359D8A08A
:100898000AD04950075C4A500858D8A004D0000E26
:1008A8006FEC04F012004950075C4A500858D8B061
:1008B8000ED04750075C48500858D8B004D0060EF0
:1008C8006FEC04F01200030E6FEC04F01200FD0E42
:1008D8006FEC04F012000001E06F590E0001D45DC6
:1008E800020E0001D559D8A003D00001E0AF18D0FE
:1008F8000001E0510001D427000E0001E0BFFF0E07
:100908000001D5231B0E0001D45D040E0001D5594A
:10091800D8A01200000E0001D56F000ED46F12008F
:1009280000F0120000F00BEC05F031C02AF032C0E4
:100938002BF0900E2A5C1A0E2B58D8B004D0819454
:10094800808A4C9809D0900E2A5C1A0E2B58D8A091
:1009580003D08184809A4C8800F012006FEC05F077
:1009680064EC05F02DEC05F0A5EC05F07AEC05F04B
:1009780093EC05F0EBEC03F098EC05F08CEC05F04B
:10098800F6EC04F04C9A4D803DEC05F01200D8903E
:1009980031363236D00E3124316E070E3220326EA7
:1009A800000ECE6E000ECF6E31C0BEFF3250316EDB
:1009B800326A31C0BFFFCD80120001C00BF002C007
:1009C8000CF003C00DF004C00EF005C00FF006C017
:1009D80010F007C011F008C012F009C013F00AC0E7
:1009E80014F01200010E0001D16FF40ED06F010E49
:1009F8000001D36FF40ED26F000E0001D56F000E08
:100A0800D46F010E0001D76FF40ED66F1200B3CF6A
:100A180033F0346A3350346E336AB2503312000EF6
:100A2800B36E000EB26E00F033C031F034C032F055
:100A380012000001E06F9EB804D0C80E00F0E82E46
:100A4800FDD7300E0001E027E0C0ADFF9EB81200D0
:100A5800FDD7000E0F01386F000E0F01396F000E21
:100A68000F013A6F000E0F013B6F000E0F013C6F34
:100A7800120083ACFED7838A9C0E0001E06FD70E6C
:100A8800E82EFED7E02FFCD700F083B81200FDD780
:100A98000001E06F9EB804D0C80E00F0E82EFDD724
:100AA800E0C0ADFF9EB81200FDD7B2EC04F084ECB4
:100AB80005F085EC03F050EC00F0E1EC04F0F7D71A
:100AC800000E926E100E936E910E946E500E956EEF
:100AD800000E966E1200000E806E080E816E000EDB
:100AE800826E080E836E000E846E1200440EAF6E86
:100AF800AC84B886AC98AB8EAC8A9E98AB88120052
:100B0800000E0F014F6F000E0F01506F81961200FB
:100B1800A382A1929D849E94F28CF28E1200000E04
:100B2800C76E210EC66E1200BD50F00B0A09BD6ECD
:100B380012000A00FF518E2DE348411B5B536D37AD
:080B48006400770ED36E120069
:020000040020DA
:08000000FFFFFFFFFFFFFFFF00
:020000040030CA
:0E000000FF181F3CFFBF81FF0FC00FE00F4035
:00000001FF
