:08000000803102288731F82F3E
:100BD20075087706031DEF2D74087606031DF32DA5
:100BE20003140800000003100800F300F201731C54
:100BF200FE2D7008F1007108F2070310F00D0310CA
:100C0200F30C7308031DF82D7208080020008C01F4
:100C12008D01013021008C0006308D0023008C01F3
:100C22008D016B3021009900240094012130950040
:100C320022001D1708008631072686310A30F80087
:100C42000030F9000230FD007D08FA0001308631E3
:100C5200CD268631003A031D322E000020008D156C
:100C6200342E20008D114D08031D392E0D151F2E17
:100C72000D111F2EF4000000F501F6012000911D58
:100C82004D2E0330F3009730F200F20B462EF30B99
:100C9200462E003220009111740824009100200099
:100CA200911D502E911124001108F200F3017208D7
:100CB200F5007308F6000830F535F60D890B5D2E48
:100CC200700891002000911D632E911124001108DB
:100CD200F200F3017208F5047308F60400005530BF
:100CE2007506AA3003197606031900007608F1008A
:100CF2007508F000080000307502AB300319740269
:100D0200031C862E20000C12A42E00307502963091
:100D1200031974020318902E20000C16A02E003026
:100D22007502963003197402031CA22E003075025C
:100D3200AB30031974020318A22E20000C128C137C
:100D4200A52E20000C168C17003077025A3003199A
:100D520076020318AF2E0C158C11080000307702B2
:100D62006F3003197602031CB92E0C118C15080082
:100D7200003077025A3003197602031CCA2E003063
:100D820077026F30031976020318CA2E0C118C11E8
:100D920008000C158C1508002000A301CD01C80124
:100DA200E92FF0015A3086313B2686317108200046
:100DB200CC007008CB0055304906AA3003194A0608
:100DC200031DEE2E55304B06AA3003194C06031DA7
:100DD200EE2ECD01CD0AA2010A2F55304906AA30C6
:100DE20003194A06031D012F56304B06AA30031978
:100DF2004C06031D012FCD01CD0AA201A20A0A2F22
:100E02004B084C04031D0A2F49084A04031D0A2FEC
:100E1200CD014C08CA004B08C9000130FB007B0819
:100E2200A307230A031D172F003008004D080319DA
:100E3200D22EF0015A3086313B26863171082000CD
:100E4200A1007008A0000C30FB007B08F0004808ED
:100E52008531F6258631243E86008701F0015A301D
:100E620086313B2686317008C03F7108C13F0C3085
:100E7200FB007B08F000200048088531F62586310A
:100E8200023E243E86008701F0015A3086313B261D
:100E920086317008C03F7108C13F0C30FB007B08EF
:100EA200F000200048088531F6258631043E243EB4
:100EB20086008701F0015A3086313B268631700860
:100EC200C03F7108C13F0C30FB007B08F0002000DE
:100ED20048088531F6258631063E243E8600870184
:100EE200F0015A3086313B2686317008C03F7108C6
:100EF200C13F0C30FB007B08F00020004808853120
:100F0200F6258631083E243E86008701F0015A30DC
:100F120086313B2686317008C03F7108C13F0C30D4
:100F2200FB007B08F000200048088531F625863159
:100F32000A3E243E86008701F0015A3086313B2664
:100F420086317008C03F7108C13F7908F500780802
:100F5200F4000C30FB007B08F000200048088531CB
:100F6200F6258631243E86008701403FF600413F48
:100F7200F7008531E9258631031CE42F0C30FB0094
:100F82007B08F000200048088531F6258631023EB4
:100F9200243E86008701403FF400413FF5000C30BB
:100FA200FC007C08F000200048088531F6258631D7
:100FB200043E243E86008701403FF600413FF70091
:100FC20086317C2686310130FB007B082000C80771
:100FD2007A084802031C172F1A30FC00F830FB0075
:100FE200FB0BF12FFC0BF12F000001300800C901AF
:0E0FF200CA01CB01CC01CD01200086311C2E9E
:020000040001F9
:04000E00E4C9FFDC66
:00000001FF
