:0400000050EF00F0CD
:100008005D82FACF40F0FBCF41F0E9CF42F0EACF72
:1000180043F0E1CF44F0E2CF45F0D9CF46F0DACF54
:1000280047F0F3CF48F0F4CF49F0F6CF4AF0F7CFD6
:100038004BF0F8CF4CF0F5CF4DF000F0A4A20CD067
:10004800A49286EC02F015EC03F043EC02F052ECBB
:1000580000F065EC02F002D0A1B2A1924DC0F5FF0C
:100068004CC0F8FF4BC0F7FF4AC0F6FF49C0F4FF89
:1000780048C0F3FF47C0DAFF46C0D9FF45C0E2FFDA
:1000880044C0E1FF43C0EAFF42C0E9FF41C0FBFFB3
:1000980040C0FAFF5D921100FFEF01F02A502B10CB
:1000A800D8A41DD058C033F059C034F0331E341EC4
:1000B800334A342A33501B5C34501C58D8B006D00D
:1000C8005CAA02D05C9C03D05C8A01D05C9A5CACD0
:1000D80003D0AFEC01F01200D7EC01F012002BBEF8
:1000E8001ED02B5003E12A04D8A019D0FF0E336E7E
:1000F800FF0E346E4EC035F04FC036F03350352603
:100108003450362235502A5C2B50800A376E3650D0
:10011800800A3758D8B003D0D7EC01F01200FF0E90
:10012800336EFF0E346E4EC035F04FC036F033508C
:100138003526345036222A50351819E12B503618F6
:10014800D8A415D01B50585C1C505958D8B006D0AC
:100158005CAA02D05C8C03D05C8A01D05C9A5CAC4F
:1001680003D0AFEC01F01200D7EC01F012000850F8
:1001780004E11E0E075CD8A026D01150075C12506F
:100188000858D8B01CD01CBE06D01C5014E12F0E45
:100198001B5CD8B010D018BE06D0185008E1180E55
:1001A800175CD8B004D0FD0E24EC03F01200000E4A
:1001B80024EC03F01200030E24EC03F01200FD0EF1
:1001C80024EC03F012005CA002D05C9001D05C80AB
:1001D800FF0E4E243A6EFF0E4F203B6E000E3D6E12
:1001E800000E3C6E3AD03CC033F03DC034F0D8909D
:1001F80033363436010E3326000E3422A60E33244D
:10020800D96E000E3420DA6E3CC035F03DC036F0B1
:10021800D89035363636010E3526000E3622D00EE9
:100228003524E16E000E3620E26EDFCFE7FFD8906E
:100238003C34D96E3D34DA6EA60ED926000EDA2289
:10024800D8903C34E16E3D34E26ED00EE126000ECB
:10025800E222DFCFE7FF3C4A3D2A3C503A5C3B5064
:10026800800A336E3D50800A3358D8B0BCD7000E90
:100278003F6E000E3E6E4ED03EC033F03FC034F0AD
:10028800D89033363436010E3326000E3422D00E81
:100298003324D96E000E3420DA6E3EC035F03FC0EC
:1002A80036F0351E361E354A362A3A5035263B502A
:1002B8003622D89035363636010E3526000E3622CF
:1002C800A60E3524E16E000E3620E26EDFCFE7FF82
:1002D800D8903E34D96E3F34DA6ED00ED926000E4F
:1002E800DA223EC033F03FC034F0331E341E334AA6
:1002F800342A3A5033263B503422D8903336343699
:10030800A60E3324E16E000E3420E26EDFCFE7FF45
:100318003E4A3F2A3E503A5C3B50800A336E3F507B
:10032800800A3358D8B0A8D7000E396E000E386E40
:1003380039BE06D0110E385C270E3958D8B01200D5
:10034800100E336E940EE82EFED7332EFCD700D055
:10035800384A392AEDD70750525C08505358D8A06C
:100368000AD05A50075C5B500858D8A004D0000E39
:1003780024EC03F012005A50075C5B500858D8B0C0
:100388000ED05850075C59500858D8B004D0060E03
:1003980024EC03F01200030E24EC03F01200FD0E0F
:1003A80024EC03F012000750565C08505758D8A0A8
:1003B8000AD05450075C55500858D8A004D0000EF5
:1003C80024EC03F012005450075C55500858D8B07C
:1003D8000ED05050075C51500858D8B004D0060EC3
:1003E80024EC03F01200030E24EC03F01200FD0EBF
:1003F80024EC03F0120000EE60F09D0EEE6AE806B1
:10040800FDE15C6A00EE01F0310EEE6AE806FDE1FE
:100418003A0EF66E060EF76E000EF86E00EE4EF00F
:1004280010EE0EF00900F5CFEEFFE550E150FAE1CD
:100438005D905D9200012FEF03F0B48EB498B49AEA
:10044800B48CFC0EB4163F0EB116CF0EB116B184A3
:10045800B1800F014D8F0F014D990F014D9B0F0179
:100468004D8DFC0E0F014D173F0E0F014E17CF0E8D
:100478000F014E170F014E850F014E8112007EA20B
:10048800FED77E9250CF2EF02F6A2E502F6E2E6AF6
:100498000F014F512E122EC007F02FC008F020EE8A
:1004A80007F0DECF32F0DDCF33F0321E331E324A92
:1004B800332A115032241B6E125033201C6E818651
:1004C800120080801FC032F020C033F0A1EC02F08F
:1004D8008090808221C032F022C033F0A1EC02F07B
:1004E8008092808623C032F024C033F0A1EC02F061
:1004F8008096808425C032F026C033F0A1EC02F04B
:1005080080941200CCEC02F032C036F033C037F0E1
:10051800900E365C1A0E3758D8B004D08194808A71
:100528005C9809D0900E365C1A0E3758D8A003D0C4
:100538008184809A5C8800F01200D890333232327D
:10054800D89033323232000E356E000E346E06D03B
:10055800050EE82EFED700F0324A332A3250345CBA
:1005680033503558D8B01200F3D70AEC03F0FFEC3B
:1005780002F0EFEC02F037EC03F03AEC03F02AEC6F
:1005880003F021EC02F033EC03F0DEEC02F0120091
:10059800B3CF34F0356A3450356E346AB250341201
:1005A800000EB36E000EB26E00F034C032F035C0EB
:1005B80033F01200010E206EF40E1F6E010E226E33
:1005C800F40E216E000E246E000E236E010E266EB0
:1005D800F40E256E1200000E0F01386F000E0F0189
:1005E800396F000E0F013A6F000E0F013B6F000EBE
:1005F8000F013C6F1200000E926E100E936E910E5A
:10060800946E500E956E000E966E1200000E806E5F
:10061800080E816E000E826E080E836E000E846EC8
:100628001200000E0F014F6F000E0F01506F8196E0
:1006380012000A001B5B536DFEA36EC88E2DE348A3
:10064800326E32502326000E24221200000EC76E8E
:10065800210EC66E1200B9EC02F000F0FED7F28E41
:0E066800F28CA3821200770ED36E12001200E5
:020000040020DA
:08000000FFFFFFFFFFFFFFFF00
:020000040030CA
:0E000000FF081F3CFFBF81FF0FC00FE00F4045
:00000001FF
